{
  "address": "0x36089eBDc2Ff89106cB3474C432554CB93E3224F",
  "abi": [
    {
      "inputs": [
        {
          "internalType": "address",
          "name": "_factory",
          "type": "address"
        },
        {
          "internalType": "address",
          "name": "_WETH9",
          "type": "address"
        }
      ],
      "stateMutability": "nonpayable",
      "type": "constructor"
    },
    {
      "inputs": [],
      "name": "WETH9",
      "outputs": [
        {
          "internalType": "address",
          "name": "",
          "type": "address"
        }
      ],
      "stateMutability": "view",
      "type": "function"
    },
    {
      "inputs": [],
      "name": "factory",
      "outputs": [
        {
          "internalType": "address",
          "name": "",
          "type": "address"
        }
      ],
      "stateMutability": "view",
      "type": "function"
    },
    {
      "inputs": [
        {
          "internalType": "bytes",
          "name": "path",
          "type": "bytes"
        },
        {
          "internalType": "uint256",
          "name": "amountIn",
          "type": "uint256"
        }
      ],
      "name": "quoteExactInput",
      "outputs": [
        {
          "internalType": "uint256",
          "name": "amountOut",
          "type": "uint256"
        }
      ],
      "stateMutability": "nonpayable",
      "type": "function"
    },
    {
      "inputs": [
        {
          "internalType": "address",
          "name": "tokenIn",
          "type": "address"
        },
        {
          "internalType": "address",
          "name": "tokenOut",
          "type": "address"
        },
        {
          "internalType": "uint24",
          "name": "fee",
          "type": "uint24"
        },
        {
          "internalType": "uint256",
          "name": "amountIn",
          "type": "uint256"
        },
        {
          "internalType": "uint160",
          "name": "sqrtPriceLimitX96",
          "type": "uint160"
        }
      ],
      "name": "quoteExactInputSingle",
      "outputs": [
        {
          "internalType": "uint256",
          "name": "amountOut",
          "type": "uint256"
        }
      ],
      "stateMutability": "nonpayable",
      "type": "function"
    },
    {
      "inputs": [
        {
          "internalType": "bytes",
          "name": "path",
          "type": "bytes"
        },
        {
          "internalType": "uint256",
          "name": "amountOut",
          "type": "uint256"
        }
      ],
      "name": "quoteExactOutput",
      "outputs": [
        {
          "internalType": "uint256",
          "name": "amountIn",
          "type": "uint256"
        }
      ],
      "stateMutability": "nonpayable",
      "type": "function"
    },
    {
      "inputs": [
        {
          "internalType": "address",
          "name": "tokenIn",
          "type": "address"
        },
        {
          "internalType": "address",
          "name": "tokenOut",
          "type": "address"
        },
        {
          "internalType": "uint24",
          "name": "fee",
          "type": "uint24"
        },
        {
          "internalType": "uint256",
          "name": "amountOut",
          "type": "uint256"
        },
        {
          "internalType": "uint160",
          "name": "sqrtPriceLimitX96",
          "type": "uint160"
        }
      ],
      "name": "quoteExactOutputSingle",
      "outputs": [
        {
          "internalType": "uint256",
          "name": "amountIn",
          "type": "uint256"
        }
      ],
      "stateMutability": "nonpayable",
      "type": "function"
    },
    {
      "inputs": [
        {
          "internalType": "int256",
          "name": "amount0Delta",
          "type": "int256"
        },
        {
          "internalType": "int256",
          "name": "amount1Delta",
          "type": "int256"
        },
        {
          "internalType": "bytes",
          "name": "path",
          "type": "bytes"
        }
      ],
      "name": "uniswapV3SwapCallback",
      "outputs": [],
      "stateMutability": "view",
      "type": "function"
    }
  ],
  "transactionHash": "0x2aedb6ab800ae46dd3876509b29c357425591a0b0b5cc5f34795da0486ae6a02",
  "args": [
    "0xD64ce27F8BDE7f86E42e3a3048664c2E8B29e443",
    "0xB4FBF271143F4FBf7B91A5ded31805e42b2208d6"
  ],
  "numDeployments": 1,
  "solcInputHash": "88aba6f0194c17371678ee5cb8a62eb8",
  "bytecode": "0x60c060405234801561001057600080fd5b506040516112e53803806112e583398101604081905261002f91610069565b6001600160601b0319606092831b8116608052911b1660a05261009b565b80516001600160a01b038116811461006457600080fd5b919050565b6000806040838503121561007b578182fd5b6100848361004d565b91506100926020840161004d565b90509250929050565b60805160601c60a05160601c6112176100ce60003980610342525080610366528061058652806106d552506112176000f3fe608060405234801561001057600080fd5b506004361061007d5760003560e01c8063c45a01551161005b578063c45a0155146100d3578063cdca1753146100db578063f7729d43146100ee578063fa461e33146101015761007d565b80632f80bb1d1461008257806330d07f21146100ab5780634aa4a4fc146100be575b600080fd5b610095610090366004610e9e565b610116565b6040516100a29190611148565b60405180910390f35b6100956100b9366004610e30565b61017b565b6100c6610340565b6040516100a29190611084565b6100c6610364565b6100956100e9366004610e9e565b610388565b6100956100fc366004610e30565b6103d6565b61011461010f366004610f04565b610555565b005b60005b600061012484610660565b9050600080600061013487610668565b92509250925061014882848389600061017b565b955083156101605761015987610699565b965061016c565b85945050505050610175565b50505050610119565b92915050565b600073ffffffffffffffffffffffffffffffffffffffff808616878216109083166101a65760008490555b6101b18787876106ce565b73ffffffffffffffffffffffffffffffffffffffff1663128acb0830836101d78861070c565b60000373ffffffffffffffffffffffffffffffffffffffff8816156101fc5787610222565b8561021b5773fffd8963efd1fc6a506488495d951d5263988d25610222565b6401000276a45b8b8b8e6040516020016102379392919061101e565b6040516020818303038152906040526040518663ffffffff1660e01b81526004016102669594939291906110a5565b6040805180830381600087803b15801561027f57600080fd5b505af19250505080156102cd575060408051601f3d9081017fffffffffffffffffffffffffffffffffffffffffffffffffffffffffffffffe01682019092526102ca91810190610ee1565b60015b610333573d8080156102fb576040519150601f19603f3d011682016040523d82523d6000602084013e610300565b606091505b5073ffffffffffffffffffffffffffffffffffffffff841661032157600080555b61032a8161073e565b92505050610337565b5050505b95945050505050565b7f000000000000000000000000000000000000000000000000000000000000000081565b7f000000000000000000000000000000000000000000000000000000000000000081565b60005b600061039684610660565b905060008060006103a687610668565b9250925092506103ba8383838960006103d6565b95508315610160576103cb87610699565b96505050505061038b565b600073ffffffffffffffffffffffffffffffffffffffff808616908716106103ff8787876106ce565b73ffffffffffffffffffffffffffffffffffffffff1663128acb0830836104258861070c565b73ffffffffffffffffffffffffffffffffffffffff881615610447578761046d565b856104665773fffd8963efd1fc6a506488495d951d5263988d2561046d565b6401000276a45b8c8b8d6040516020016104829392919061101e565b6040516020818303038152906040526040518663ffffffff1660e01b81526004016104b19594939291906110a5565b6040805180830381600087803b1580156104ca57600080fd5b505af1925050508015610518575060408051601f3d9081017fffffffffffffffffffffffffffffffffffffffffffffffffffffffffffffffe016820190925261051591810190610ee1565b60015b610333573d808015610546576040519150601f19603f3d011682016040523d82523d6000602084013e61054b565b606091505b5061032a8161073e565b60008313806105645750600082135b61056d57600080fd5b600080600061057b84610668565b9250925092506105ad7f00000000000000000000000000000000000000000000000000000000000000008484846107ef565b5060008060008089136105f3578573ffffffffffffffffffffffffffffffffffffffff168573ffffffffffffffffffffffffffffffffffffffff1610888a600003610628565b8473ffffffffffffffffffffffffffffffffffffffff168673ffffffffffffffffffffffffffffffffffffffff161089896000035b925092509250821561063f57604051818152602081fd5b6000541561065557600054811461065557600080fd5b604051828152602081fd5b516042111590565b600080806106768482610805565b9250610683846014610905565b9050610690846017610805565b91509193909250565b80516060906101759083906017907fffffffffffffffffffffffffffffffffffffffffffffffffffffffffffffffe9016109f5565b60006107047f00000000000000000000000000000000000000000000000000000000000000006106ff868686610bdc565b610c59565b949350505050565b60007f8000000000000000000000000000000000000000000000000000000000000000821061073a57600080fd5b5090565b600081516020146107db5760448251101561078e576040517f08c379a000000000000000000000000000000000000000000000000000000000815260040161078590611111565b60405180910390fd5b600482019150818060200190518101906107a89190610f52565b6040517f08c379a000000000000000000000000000000000000000000000000000000000815260040161078591906110f7565b818060200190518101906101759190610fbc565b600061033785610800868686610bdc565b610d8f565b60008182601401101561087957604080517f08c379a000000000000000000000000000000000000000000000000000000000815260206004820152601260248201527f746f416464726573735f6f766572666c6f770000000000000000000000000000604482015290519081900360640190fd5b81601401835110156108ec57604080517f08c379a000000000000000000000000000000000000000000000000000000000815260206004820152601560248201527f746f416464726573735f6f75744f66426f756e64730000000000000000000000604482015290519081900360640190fd5b5001602001516c01000000000000000000000000900490565b60008182600301101561097957604080517f08c379a000000000000000000000000000000000000000000000000000000000815260206004820152601160248201527f746f55696e7432345f6f766572666c6f77000000000000000000000000000000604482015290519081900360640190fd5b81600301835110156109ec57604080517f08c379a000000000000000000000000000000000000000000000000000000000815260206004820152601460248201527f746f55696e7432345f6f75744f66426f756e6473000000000000000000000000604482015290519081900360640190fd5b50016003015190565b60608182601f011015610a6957604080517f08c379a000000000000000000000000000000000000000000000000000000000815260206004820152600e60248201527f736c6963655f6f766572666c6f77000000000000000000000000000000000000604482015290519081900360640190fd5b828284011015610ada57604080517f08c379a000000000000000000000000000000000000000000000000000000000815260206004820152600e60248201527f736c6963655f6f766572666c6f77000000000000000000000000000000000000604482015290519081900360640190fd5b81830184511015610b4c57604080517f08c379a000000000000000000000000000000000000000000000000000000000815260206004820152601160248201527f736c6963655f6f75744f66426f756e6473000000000000000000000000000000604482015290519081900360640190fd5b606082158015610b6b5760405191506000825260208201604052610bd3565b6040519150601f8416801560200281840101858101878315602002848b0101015b81831015610ba4578051835260209283019201610b8c565b5050858452601f017fffffffffffffffffffffffffffffffffffffffffffffffffffffffffffffffe016604052505b50949350505050565b610be4610dbf565b8273ffffffffffffffffffffffffffffffffffffffff168473ffffffffffffffffffffffffffffffffffffffff161115610c1c579192915b506040805160608101825273ffffffffffffffffffffffffffffffffffffffff948516815292909316602083015262ffffff169181019190915290565b6000816020015173ffffffffffffffffffffffffffffffffffffffff16826000015173ffffffffffffffffffffffffffffffffffffffff1610610c9b57600080fd5b508051602080830151604093840151845173ffffffffffffffffffffffffffffffffffffffff94851681850152939091168385015262ffffff166060808401919091528351808403820181526080840185528051908301207fff0000000000000000000000000000000000000000000000000000000000000060a085015294901b7fffffffffffffffffffffffffffffffffffffffff0000000000000000000000001660a183015260b58201939093527fe34f199b19b2b4f47f68442619d555527d244f78a3297ea89325f843f87b8b5460d5808301919091528251808303909101815260f5909101909152805191012090565b6000610d9b8383610c59565b90503373ffffffffffffffffffffffffffffffffffffffff82161461017557600080fd5b604080516060810182526000808252602082018190529181019190915290565b600082601f830112610def578081fd5b8135610e02610dfd82611175565b611151565b818152846020838601011115610e16578283fd5b816020850160208301379081016020019190915292915050565b600080600080600060a08688031215610e47578081fd5b8535610e52816111e5565b94506020860135610e62816111e5565b9350604086013562ffffff81168114610e79578182fd5b9250606086013591506080860135610e90816111e5565b809150509295509295909350565b60008060408385031215610eb0578182fd5b823567ffffffffffffffff811115610ec6578283fd5b610ed285828601610ddf565b95602094909401359450505050565b60008060408385031215610ef3578182fd5b505080516020909101519092909150565b600080600060608486031215610f18578283fd5b8335925060208401359150604084013567ffffffffffffffff811115610f3c578182fd5b610f4886828701610ddf565b9150509250925092565b600060208284031215610f63578081fd5b815167ffffffffffffffff811115610f79578182fd5b8201601f81018413610f89578182fd5b8051610f97610dfd82611175565b818152856020838501011115610fab578384fd5b6103378260208301602086016111b5565b600060208284031215610fcd578081fd5b5051919050565b60008151808452610fec8160208601602086016111b5565b601f017fffffffffffffffffffffffffffffffffffffffffffffffffffffffffffffffe0169290920160200192915050565b606093841b7fffffffffffffffffffffffffffffffffffffffff000000000000000000000000908116825260e89390931b7fffffff0000000000000000000000000000000000000000000000000000000000166014820152921b166017820152602b0190565b73ffffffffffffffffffffffffffffffffffffffff91909116815260200190565b600073ffffffffffffffffffffffffffffffffffffffff8088168352861515602084015285604084015280851660608401525060a060808301526110ec60a0830184610fd4565b979650505050505050565b60006020825261110a6020830184610fd4565b9392505050565b60208082526010908201527f556e6578706563746564206572726f7200000000000000000000000000000000604082015260600190565b90815260200190565b60405181810167ffffffffffffffff8111828210171561116d57fe5b604052919050565b600067ffffffffffffffff82111561118957fe5b50601f017fffffffffffffffffffffffffffffffffffffffffffffffffffffffffffffffe01660200190565b60005b838110156111d05781810151838201526020016111b8565b838111156111df576000848401525b50505050565b73ffffffffffffffffffffffffffffffffffffffff8116811461120757600080fd5b5056fea164736f6c6343000706000a"
}